:100000000C9486010C94C9020C94E9020C94260409
:100010000C94C4030C94A3010C94A3010C94A301AD
:100020000C94A3010C94A3010C94E6050C94A30179
:100030000C94A3010C94060C0C94A3010C94A30142
:100040000C94A3010C94A3010C94A3010C94000D37
:100050000C94A30154686520526F626F74206E6522
:1000600065647320746F20626520726573657474B3
:100070006564206E6F772E0A0A00596F75206E65D1
:10008000656420746F20636865636B204D6F746FC7
:100090007220617373656D626C7920286F722079AC
:1000A0006F757220736F667477617265292E0A0A04
:1000B000000A0A28732E207461736B5F6D6F746F72
:1000C00072436F6E74726F6C28292066756E63744C
:1000D000696F6E20696E205250364C696221290A80
:1000E000000A0A232323204D4F544F52204F5645D8
:1000F0005243555252454E54202323230A00596F30
:1001000075206E65656420746F20636865636B207D
:10011000456E636F6465722F4D6F746F72206173EB
:1001200073656D626C7920286F7220796F7572200B
:10013000736F667477617265292E0A0A00210A0AB4
:1001400028732E207461736B5F6D6F746F72436FD1
:100150006E74726F6C28292066756E6374696F6E99
:1001600020696E205250364C696221290A0052499A
:10017000474854004C4546540041666665637465C3
:1001800064206368616E6E656C3A000A2323232045
:10019000454E434F44455220284F52204D4F544F17
:1001A0005229204D414C46554E4354494F4E212033
:1001B0002323230A00232323232320414C4C204FB5
:1001C0005045524154494F4E532053544F5050457F
:1001D0004420544F2050524556454E5420414E59CC
:1001E0002044414D414745212023232323230A0056
:1001F0000A0A232323232320454D455247454E43D6
:10020000592053485554444F574E2023232323232A
:100210000A000A54686520526F626F74206E65652B
:10022000647320746F2062652072657365747465F1
:1002300064206E6F772E0A0A0077697468696E20F1
:1002400074686520646566696E65642074696D65AF
:100250006F757421204D6179626520686527732070
:100260006C6F636B6564207570210A0054686520AB
:100270004D617374657220436F6E74726F6C6C6540
:100280007220646964206E6F7420726573706F6E83
:100290006420746F2074686520696E74657272756D
:1002A00070742072657175657374730A002323235B
:1002B000232320414C4C204F5045524154494F4E2E
:1002C000532053544F5050454420544F20505245D2
:1002D00056454E5420414E592044414D41474521F9
:1002E0002023232323230A0A000A0A232323232368
:1002F00020454D455247454E435920534855544497
:100300004F574E2023232323230A000011241FBE0E
:10031000CFE5D8E0DEBFCDBF10E0A0E6B0E0EEE074
:10032000F2E202C005900D92AE38B107D9F711E0A4
:10033000AEE8B0E001C01D92A239B107E1F70E941A
:10034000A5010C9405110C9400000E94CE078AE0D0
:100350000E94F60C85E590E10E94520481E490E150
:100360000E9436028CE290E10E940A030E94CB05B3
:100370008091EE0081608093EE000E949A050E94B9
:10038000B5051092B8001092BC001092C000809188
:10039000EE0084608093EE008091EE008860809390
:1003A000EE000E941B0E0E94D30F0E94E90E0E94D5
:1003B000BC0A0E94830FF5CF8091D500843010F0E5
:1003C0001092D500089584E08093D500089587B3F6
:1003D0008C7787BB88B38C7788BB8091BF0083FF05
:1003E00002C0BF9AC79A84FF02C0B99AC19A85FF1A
:1003F00002C0B89AC09A84B38F7884BB85B38F78D3
:1004000085BB94B32091BF00822F82958077982B73
:1004100094BB95B3892B85BB8091D500882319F4B3
:10042000822F211181E08093D50008958093BF0031
:100430000E94E7010895C098B898000096B3809193
:10044000BF0085FF02C0B89AC09A892F81700895B5
:10045000AE98A698000093B38091BF0082FF02C0BF
:10046000A69AAE9A892F8074089508959093680093
:100470008093670008951F9380910D018333C8F026
:100480000E941B02182F0E942802982F8091C10001
:10049000811721F480911E01891749F01093C10042
:1004A00090931E01E0916700F09168000995109209
:1004B0000D011F910895369B03C020E030E009C074
:1004C000806487B986ED86B93699FECF349A24B117
:1004D00035B1C9010895806487B986ED86B908955C
:1004E000369956C02091A700233039F1243028F4E2
:1004F000213099F02230C8F408C0253089F1253028
:1005000020F1263009F041C033C084B195B19093F9
:1005100022018093210186E41FC084B195B190939C
:1005200027018093260185E417C084B195B190938B
:1005300018018093170183E40FC084B195B19093A3
:10054000E1008093E00082E407C084B195B190930C
:1005500007018093060180E487B986ED86B915C04E
:1005600084B195B1909315018093140181E4F4CF87
:1005700084B195B19093DF008093DE0087E487B962
:1005800086ED86B91092A70008952F5F2093A700EB
:1005900008951F920F920FB60F9211248F939F937D
:1005A00080911C0190911D01019690931D018093F3
:1005B0001C018091120190911301019690931301F7
:1005C000809312019F918F910F900FBE0F901F90FB
:1005D00018951F920F920FB60F9211248F939F932D
:1005E00080910E0190910F01019690930F018093DD
:1005F0000E018091E8009091E90001969093E90046
:100600008093E8009F918F910F900FBE0F901F90E5
:100610001895089590936600809365000895893C2D
:1006200008F088EC8093C6001092C700693C08F07F
:1006300068EC6093C4001092C5000895282F809341
:100640009A00109296008150823018F481E08093D5
:100650009600213021F080E090E0233011F481E019
:1006600090E08093970008959C011092960097FF68
:1006700003C081E0809396001092970077FF03C03B
:1006800081E0809397001216130614F4822F03C0A2
:10069000822F81956195893C08F088EC8093C60093
:1006A0001092C700693C08F068EC6093C400109297
:1006B000C500089590E08091BB00837009F491E03B
:1006C000892F08951092C7001092C6001092C5009D
:1006D0001092C4001092D1001092D00010920C0120
:1006E00010920B018091BB008C7F8093BB008093A4
:1006F0002001E0916500F091660009950895633D41
:1007000008F062ED6093E6001092E700833D08F088
:1007100082ED8093D6001092D700089580939800C0
:10072000609399008093960060939700882311F05E
:10073000AA9A01C0AA98662311F0AB9A0895AB98C3
:100740000895982F03C089B7806889BF8091CB0036
:100750008823C9F7892F90E08F73907026E0880F67
:10076000991F2A95E1F7262F30E02F733070822BE6
:10077000932B90639093EB008093EA008091CA00E2
:1007800080648093CA0008951F920F920FB60F9253
:1007900011242F938F939F93809160008230B0F546
:1007A0002091A6002223C1F02C3338F4809104015B
:1007B0009091050196FF07C008C0809104019091B7
:1007C000050196FF02C0979803C082B3805882BB90
:1007D00021502093A60032C08091CB008823A1F045
:1007E00097988091040190910501880F991F90932B
:1007F00005018093040188E78093A6008091CB00D7
:1008000081508093CB001AC0979818C08091CF0078
:10081000882391F08091CA0080FD05C088B390E4E0
:10082000892788BB03C085B3805885BB8091CF00E2
:1008300081508093CF0002C0C69AAF9A9F918F914A
:100840002F910F900FBE0F901F9018951F920F922F
:100850000FB60F9211248F9380916000833011F0B6
:10086000863069F48091CA0084FD09C085FF07C005
:10087000B29905C080911F018F5F80931F0186B3DD
:100880008091CA008D7F8093CA008F910F900FBE18
:100890000F901F90189508959093620080936100C7
:1008A0000895089590936400809363000895809163
:1008B000E2009091E300029708F43BC19091CA00D6
:1008C00094FD16C180916000823009F467C08330C6
:1008D00030F4882371F0813009F010C111C08530E7
:1008E00009F4ACC0863009F4C1C0833009F006C1F8
:1008F0006DC089B78F7789BF9798C69AAF9AFEC0A7
:100900008091CB00882341F596FF14C08091EA00C6
:100910009091EB0090930501809304018EE0809309
:10092000CB008091CA008F7B8093CA0089B7806812
:1009300089BF06C089B78F7789BF9798C69AAF9A43
:100940008091A5008F5F8093A5008150843138F09D
:1009500082E08093600003C089B7806889BF80917E
:10096000CA0083FFCBC0E0916100F09162008091EA
:1009700023019091240109958091230190912401F4
:100980009093D3008093D2001092240110922301FF
:100990008091CA00877F8093CA00B0C089B78F77E3
:1009A00089BF9798C69AAF9A1092CF0010921F01F4
:1009B0001092A4001092A3008091CA008E7F8062E2
:1009C0008093CA0083E08093A50075C08091CF001A
:1009D000882381F48091A5008F5F8093A5008150CA
:1009E000833040F089B7806889BF88E28093CF0068
:1009F0001092A50080910001882321F080911F01B1
:100A0000823020F480911F01863038F010921F014F
:100A100081E08093000185E04EC08091A300909119
:100A2000A40001969093A4008093A30001970E97D1
:100A300008F464C01092000185E04FC089B78F7739
:100A400089BF9798C69AAF9A1092CF0010921F0153
:100A50001092A4001092A3008091CA00816280933A
:100A6000CA0083E08093A50086E025C08091CF0076
:100A7000882381F48091A5008F5F8093A500815029
:100A8000833040F089B7806889BF88E28093CF00C7
:100A90001092A50080910901882321F080911F0107
:100AA000823020F480911F01863040F010921F01A7
:100AB00081E0809309018093600020C08091A300B1
:100AC0009091A40001969093A4008093A3000197B5
:100AD0000E97A0F01092090181E08093600089B721
:100AE0008F7789BF9798C69AAF9A1092CF0006C0A9
:100AF0001092A4001092A3001092A5002091000172
:100B00008091A200821731F49091A1008091090197
:100B1000981759F02093A200809109018093A100B9
:100B2000E0916300F091640009951092E300109247
:100B3000E20008951092600089B78F7789BF979877
:100B4000C69AAF9A1092090110920001089589B7D0
:100B50008F7789BF9798C69AAF9A10920901109221
:100B6000000181E08093600008958E989698BB986C
:100B7000C398C698AF9808958E9A969ABB98C398D2
:100B800008958E989698BB9AC39A08958E9A969ACD
:100B9000BB9AC39A0895C49A8091D500843018F402
:100BA00083E08093D5000895C4988091D500843067
:100BB00060F4882331F420E030E08091BF00882386
:100BC00011F021E030E02093D50008951F920F929C
:100BD0000FB60F9211242F933F934F935F936F9310
:100BE0007F938F939F93AF93BF938091B900909120
:100BF000BA0001969093BA008093B90080911601D3
:100C00008F5F80931601809119018F5F8093190186
:100C10008150893008F447C18091EE0080FF09C0FF
:100C20008091EF009091F00001969093F0008093F6
:100C3000EF008091EE0081FF09C08091F10090915A
:100C4000F20001969093F2008093F1008091EE0003
:100C500082FF09C08091F3009091F4000196909377
:100C6000F4008093F3008091EE0083FF09C080912F
:100C7000F5009091F60001969093F6008093F500B0
:100C80008091EE0084FF09C08091F7009091F800F8
:100C900001969093F8008093F7008091EE0085FF15
:100CA00009C08091F9009091FA0001969093FA00A2
:100CB0008093F9008091EE0086FF09C08091FB00CF
:100CC0009091FC0001969093FC008093FB00809132
:100CD000EE0087FF09C08091FD009091FE00019613
:100CE0009093FE008093FD0080910A018F5F8093B6
:100CF0000A018150893CE8F08091E8009091E90078
:100D000090931B0180931A0180911201909113011D
:100D10009093D9008093D8001092E9001092E800D7
:100D2000109213011092120181E08093D40010926E
:100D30000A014091D500433008F052C0423081F59D
:100D40008091BF00882301F580919F009091A000C1
:100D50009C012F5F3F4F3093A00020939F0068ECD1
:100D600070E00E948B10892BD9F5215A3F4028F062
:100D7000B998C1981092D50029C087B3842787BB42
:100D800088B3842788BB2CC084FD02C0B998C19861
:100D90001092A00010929F0081E08093D50020C0A7
:100DA00080919F009091A0002EE2813E920798F0E2
:100DB000413049F41092D5008091BF0084FD06C0F7
:100DC000B998C19803C082E08093D5001092A0002A
:100DD00010929F0005C001969093A00080939F0001
:100DE0008091E2009091E300039748F48091E20043
:100DF0009091E30001969093E3008093E20080914C
:100E00000201873318F48F5F8093020180910D01F6
:100E1000843328F480910D018F5F80930D018091C0
:100E200008018F5F8093080181508330D0F1809159
:100E30000301482F50E02091E6003091E70042176F
:100E4000530759F04217530714F48F5F01C08150C4
:100E500080930301809103018ABD80912501482F71
:100E600050E02091D6003091D7004217530759F037
:100E70004217530714F48F5F01C0815080932501FE
:100E80008091250188BD80912501882321F48091DE
:100E90000301882319F082EA8FBD01C01FBC1092A4
:100EA0000801109219018091CA0083FD46C020916B
:100EB0009B0030919C0040919D004F5F40939D00AE
:100EC000463190F036FD09C035FF07C0309324014C
:100ED0002093230188608093CA008091CA008F7E8E
:100EE0008093CA0020E030E090919E0086B389276D
:100EF00082FF1FC0909590939E00473040F48091F0
:100F0000CA008F7E8093CA0020E030E005C0211522
:100F1000310511F04F3068F08091CA0080618093F4
:100F2000CA0036FD02C0220F331F92FF21601092CB
:100F30009D0030939C0020939B00BF91AF919F91A7
:100F40008F917F916F915F914F913F912F910F9072
:100F50000FBE0F901F901895982F10921601809138
:100F600016018917E0F308959C0108C0109216013C
:100F7000809116018A30E0F321503040211531056F
:100F8000A9F7089502C0000001970097E1F70895BE
:100F9000D49ADC9A0895DC98D49808951BBA18BAAC
:100FA00015BA81E082BB1ABA88E587BB8CE884BB9E
:100FB00082EF81BBF894C598BD9A87B397980E9439
:100FC000B50510BC8CE089B91BB886E880BD88E9FE
:100FD0008AB917B886E186B910BE85E085BF80EE74
:100FE0008BBF14BE8AE083BF83E68CBF82EA8FBDCD
:100FF00081E18EBD82ED90E097BD86BD1ABC18BC24
:1010000080E060E00E948E0389E085BD8EE683BDAE
:1010100082E089BF8091CA0081608093CA0081E02C
:1010200080936000789408951F93182FF8949798F0
:101030000E94B5051092D7001092D6001092E700DA
:101040001092E6001092D1001092D00010920C0184
:1010500010920B0110922501109203011ABC18BCCA
:101060001FBC0E94D40580EF91E00E94ED0B85EB40
:1010700091E00E94ED0B812F81508230C0F48BE80B
:1010800091E00E94ED0B89E791E00E94ED0B113099
:1010900019F484E791E002C08EE691E00E94ED0B26
:1010A0008DE391E00E94ED0B8EEF90E00CC01330C9
:1010B00061F481EE90E00E94ED0B81EB90E00E94E4
:1010C000ED0B8AE790E00E94ED0B84E590E00E9432
:1010D000ED0B16E31093BF000E94E7012AE008C061
:1010E000000001973FEF8F3F9307D1F7215019F090
:1010F00080E090E8F6CF1092BF000E94E7012AE05E
:1011000005C000000197E9F7215021F380E090E04D
:10111000F9CF80910201823308F47CC01092020161
:101120008091FF00882309F041C0809126019091B1
:1011300027018350934038F4809117019091180152
:1011400083509340F0F0809101018F5F8093010103
:101150008AE08093FF001092D7001092D600109280
:10116000E7001092E6001092D1001092D000109289
:101170000C0110920B018091BB0084608093BB0036
:1011800008958091BB008B7F8093BB008091CC0041
:10119000853628F0109201011092CC0007C0809192
:1011A0000101833018F083E00E9414088091260129
:1011B000909127018639910598F48091D8009091FB
:1011C000D900892B69F48091C6009091C700892BC2
:1011D00039F080912501873918F081E00E941408C8
:1011E00080911701909118018639910598F48091AA
:1011F0001A0190911B01892B69F48091C400909190
:10120000C500892B39F080910301873918F082E0FD
:101210000E9414088091D400882309F49FC1809112
:10122000FF00882309F095C180910101882331F0E6
:101230008091CC008F5F8093CC0002C01092CC00D4
:101240004091BB0041FF38C020911C0130911D012D
:101250008091C2009091C3002817390780F0109246
:10126000C7001092C6001092D1001092D0001092C8
:10127000D7001092D6004D7F4093BB001DC0209137
:101280001C0130911D018091DA009091DB0028173C
:10129000390790F08091C6009091C7009695879588
:1012A0009093C7008093C600469730F486E190E0A3
:1012B0009093C7008093C6004091BB0040FF38C0A8
:1012C00020910E0130910F018091E4009091E50092
:1012D0002817390780F01092C5001092C4001092B0
:1012E0000C0110920B011092E7001092E6004E7F65
:1012F0004093BB001DC020910E0130910F018091E1
:101300001001909111012817390790F08091C400C5
:101310009091C500969587959093C5008093C400E1
:10132000469730F486E190E09093C5008093C40026
:101330004091960080919800481739F49091970059
:1013400080919900981709F455C02091C6003091FA
:10135000C7002115310531F48091C4009091C5007A
:10136000892B21F13093C9002093C8008091C400DB
:101370009091C5009093DD008093DC001092C7002F
:101380001092C6001092C5001092C4001092E7009F
:101390001092E6001092D7001092D6001092D10061
:1013A0001092D00010920C0110920B018FB588237F
:1013B00009F5842F609197000E948E038091C800E8
:1013C0009091C9009093C7008093C6002091DC00E3
:1013D0003091DD003093C5002093C4009695879529
:1013E0009093D1008093D0003695279530930C01CF
:1013F00020930B014091C6005091C7008091D80006
:101400009091D9009A01281B390BC9012091D00075
:101410003091D100820F931F9093D1008093D00020
:10142000855A914034F084EA91E09093D100809302
:10143000D0008091D0009091D1008C559E4F34F413
:101440008CE59EEF9093D1008093D0008091D800DE
:101450009091D900892B31F4452B21F41092D100C1
:101460001092D0008091D0009091D10062E070E0A5
:101470000E949F107093D7006093D600633D710562
:1014800034F082ED90E09093D7008093D600809165
:10149000D6009091D70097FF04C01092D700109209
:1014A000D6004091C4005091C50080911A019091DE
:1014B0001B019A01281B390BC90120910B013091A6
:1014C0000C01820F931F90930C0180930B01855A9E
:1014D000914034F084EA91E090930C0180930B01E9
:1014E00080910B0190910C018C559E4F34F48CE54A
:1014F0009EEF90930C0180930B0180911A019091C3
:101500001B01892B31F4452B21F410920C01109210
:101510000B0180910B0190910C0162E070E00E9440
:101520009F107093E7006093E600633D710534F00F
:1015300082ED90E09093E7008093E6008091E600D2
:101540009091E70097FF08C01092E7001092E60024
:1015500003C081508093FF001092D4009091BB0093
:1015600080912001891739F090932001E091650066
:10157000F0916600099508950E9470020E94570438
:101580000E943B020E9489080895FF920F931F93C7
:10159000CF93DF93182F062FF22E8091BB0083602C
:1015A0008093BB0060E070E0CB01BA0120EB32E039
:1015B00040E050E00E946C1024E630E040E050E053
:1015C0000E94B210E901C901845690409093110124
:1015D000809310019093DB008093DA003093E50054
:1015E0002093E4003093C3002093C20028323105D9
:1015F000B0F484E190E09093E5008093E400909350
:10160000C3008093C2008AE090E090931101809320
:1016100010019093DB008093DA00C8E2D0E0193C1F
:1016200018F018EC88EC01C0812F8093C60010924E
:10163000C7001093C4001092C500802F0E941E03A3
:1016400010921D0110921C0110920F0110920E01B8
:10165000D093ED00C093EC00D093CE00C093CD00AA
:101660008091BB0080932001E0916500F0916600BD
:101670000995FF2019F406C00E94BC0A8091BB00A6
:101680008370D1F7DF91CF911F910F91FF90089553
:101690001F93CF93DF93382FEA01122F8091BB0065
:1016A00083608093BB001092110110921001109280
:1016B000DB001092DA00373180F086EF9FEF831B5A
:1016C0009109880F991F840F951F909311018093A2
:1016D00010019093DB008093DA00CE010297909383
:1016E000E5008093E4009093C3008093C200C83269
:1016F000D105B8F484E190E09093E5008093E40094
:101700009093C3008093C2008AE090E0909311010F
:10171000809310019093DB008093DA00C8E2D0E060
:1017200004C021E0C039D20798F4393288F0CE01E4
:1017300096958795969587959E01281B390B309332
:101740001101209310013093DB002093DA0038E27E
:1017500010921D0110921C0110920F0110920E01A7
:10176000393C18F038EC88EC01C0832F8093C60018
:101770001092C7003093C4001092C500862F0E94BB
:101780001E03D093ED00C093EC00D093CE00C09325
:10179000CD008091BB0080932001E0916500F09125
:1017A00066000995112319F406C00E94BC0A8091B5
:1017B000BB008370D1F7DF91CF911F9108955D9B9E
:1017C000FECF8CB90895FC0104C05D9BFECF31961D
:1017D0008CB980818823C9F7089503C05D9BFECF33
:1017E0002CB9FC01019624912223C1F70895FC0134
:1017F000E40FF11D05C05D9BFECF31968CB96150A1
:101800008081882311F06623B1F708951F920F920B
:101810000FB60F9211242F938F939F93EF93FF9303
:101820002091AB008091AA00922F981B9032A8F4CF
:101830008091A900E82FF0E09CB1E75DFE4F908316
:101840008F5F8093A9002F5F2093AB00813210F04F
:101850001092A9001092280106C08CB18093AD00AF
:1018600081E080932801FF91EF919F918F912F91BB
:101870000F900FBE0F901F90189510922801909115
:10188000AA008091AB00891711F4E0E013C09F5FBC
:101890009093AA008091A800813210F01092A800C5
:1018A0008091A800E82FF0E0E75DFE4FE0818F5FB8
:1018B0008093A8008E2F089510922801DC0120E06B
:1018C00014C09F5F9093AA008091A800E82FF0E0D9
:1018D000E75DFE4F90819C938F5F8093A8008132DB
:1018E00010F01092A8002F5F11969091AA0080919D
:1018F000AB00891711F0261720F3822F08958091ED
:10190000AB009091AA00891B089557988CB18093E1
:10191000AC001092A8001092A9001092AA00109298
:10192000AB0010922801579A08950F931F93DF93ED
:10193000CF93CDB7DEB761970FB6F894DEBF0FBE79
:10194000CDBF462F8E010F5F1F4FB80150E00E94A0
:10195000D410C8010E94E30B61960FB6F894DEBF65
:101960000FBECDBFCF91DF911F910F910895FF92D0
:101970000F931F93DF93CF93CDB7DEB761970FB669
:10198000F894DEBF0FBECDBF262FF42E8E010F5F61
:101990001F4FB801422F50E00E94D410F80101906F
:1019A0000020E9F73197E01BF10B4F2D4E1B141669
:1019B00064F480E341505D9BFECF8CB94423D1F7A2
:1019C000CE0101960E94E30B05C04195C8016F2D21
:1019D0000E94F70B61960FB6F894DEBF0FBECDBF25
:1019E000CF91DF911F910F91FF900895F89482B9E4
:1019F0008FEF83B984E086BF789485EC86BF089525
:101A00001F920F920FB60F9211248F939F93EF9313
:101A1000FF9381B1803909F458C0813948F4803787
:101A200009F44FC08038A1F1803609F05BC02BC0AB
:101A3000883A61F0893A20F4803A09F053C04AC0EC
:101A4000883B51F0803C09F04DC013C084E0809386
:101A5000B20081E08093B0008091B2008430C1F583
:101A60008091B300E82FF0E0E55AFE4F908193B9E2
:101A700024C01092B2001092B3001092B00081E026
:101A80008093AE0025C081E08093B10082E01AC04F
:101A90008091B200823039F483B18093B300809397
:101AA000AF0083E00FC0833099F48091B300E82F3A
:101AB000F0E093B1E55BFE4F90838F5F8093B300BE
:101AC00007C081E08093B20003C083B180934A01D4
:101AD00085EC09C085E08093B20085EC86BF10924A
:101AE000B10002C084E886BFFF91EF919F918F9172
:101AF0000F900FBE0F901F901895FC01208131812F
:101B000082819381281B390B35952795C90108954A
:101B1000CF93DF93EC018091B4009091B500885E83
:101B20009340D0F089E690E00E94E30B8881998190
:101B30006AE00E94950C88E790E00E94E30B8A819E
:101B40009B816AE00E94950C87E890E00E94E30B7D
:101B50001092B5001092B4008091B4009091B5003D
:101B600001969093B5008093B400DF91CF910895D2
:101B70000F931F938C0180E00E945B02F801918318
:101B8000808381E00E945B02F801938382831F912E
:101B90000F9108958091EF009091F00085369105A6
:101BA000F8F0809189000E9416028091B600909111
:101BB0008900882311F4990F01C0969590938900AC
:101BC00080918900883020F081E08093B60004C0C5
:101BD000823010F41092B6001092F0001092EF00D4
:101BE000089580914B01882321F18091B1008823D1
:101BF00001F580914B018093910110924B018091EE
:101C00004C0180938C0180914D0180938E018091D5
:101C10004E0180938F0180914F0180938D018091BF
:101C20005001809390018091510180938B0181E05C
:101C3000089580E008950E94F10D882309F4B2C050
:101C400080919101863009F442C0873080F483305E
:101C500079F1843030F48823F9F0813009F0A2C0A2
:101C600021C0843051F1853009F09CC029C08930F1
:101C700009F450C08A3030F4873071F1883009F0AF
:101C800091C039C08B3009F472C08B3008F468C041
:101C90008C3009F087C079C00E94D4058091C000C3
:101CA0008E7F70C00E94CB058091C00081606AC0A9
:101CB00080918C010E94160208950E94620308958B
:101CC00080918C0160918E010E940F030895809194
:101CD0008C010E941E03089550918F0140E0809175
:101CE0008D01480F511D80918C0160918E0120E083
:101CF0000E94480B089550918F0140E080918D0122
:101D0000480F511D80918C0160918E0120E00E944E
:101D1000C50A089580918C01813081F0813030F0C6
:101D2000823089F0833009F03DC012C00E949A05CC
:101D30000E94B5058091C0008D7F24C00E94A70538
:101D40000E94BC0509C00E94A7050E94C10504C0ED
:101D50000E94A7050E94C6058091C000826012C043
:101D600080918C0160918E010E94A103089590E002
:101D700080918C01811191E0990F990F8091C000A1
:101D80008B7F892B8093C000089590E080918C0117
:101D9000811191E09295907F8091C0008F7E892B78
:101DA0008093C00008958091EE008D7F8093EE00B7
:101DB0001092F2001092F1008091C000877F809312
:101DC000C0008091B80087778093B8000E94CB074D
:101DD00008958091B000882309F086C08091B800F2
:101DE00080935B018091C00080935C018091BC0076
:101DF00080935D018091D60080935E018091E60022
:101E000080935F018091D8009091D9008093600108
:101E100080911A0190911B01809361018091C6000D
:101E2000809362018091C4008093630180911C01C2
:101E300090911D018093640180911C0190911D017E
:101E40009093650180910E0190910F01809366013E
:101E500080910E0190910F01909367018091E000B5
:101E60009091E1008093680190936901809106014F
:101E70009091070180936A0190936B0180912601F4
:101E80009091270180936C0190936D0180911701CF
:101E90009091180180936E0190936F0180912101C0
:101EA00090912201809370019093710180911401AF
:101EB0009091150180937201909373018091DE00DF
:101EC0009091DF0080937401909375018091BF0021
:101ED000809378018091AE00882331F08091AF002B
:101EE000882311F40E94D30E08951092AE000E9430
:101EF000C8078091C00082FF05C08091EE0082601B
:101F00008093EE0008951F932091C00022FF49C0E6
:101F10008091F1009091F200895B9B4090F1F894E0
:101F200097980E94B5051ABC18BC1FBC0E94D40526
:101F300089EE92E00E94ED0B8DEA92E00E94ED0B9B
:101F40008CE692E00E94ED0B89E392E00E94ED0B9B
:101F500082E192E00E94ED0B82E20E9416021AE0FA
:101F600080E090E80E94C2071150D1F784E10E94FE
:101F700016021AE080E090E80E94C2071150D1F7E3
:101F8000EBCF8091F3009091F4008B3F910548F0E6
:101F900028602093C0000E94750F1092F4001092E8
:101FA000F3001F9108958091F5009091F6008B3F0A
:101FB0009105C8F0809121019091220120918A0021
:101FC00030918B00820F931F9695879590938B008D
:101FD00080938A008091B7008F5F8093B700109242
:101FE000F2001092F1008091B7008630B8F0809135
:101FF000B80020918A0030918B0080FD05C02053ED
:10200000324050F4816004C02554324028F08E7F65
:102010008093B8000E94750F1092B7008091D6008F
:102020009091D700892B31F48091E6009091E700E0
:10203000009711F081E090E08170880F9091BC00D2
:10204000957E20919A002370220F220F220F982B49
:10205000922B9093BC0008950E945A038170909136
:10206000BC009A7F2091BB002470982B922B9093F8
:10207000BC008091B80080688093B8000E94750F02
:1020800008958091C1008170880F9091B8009D7F64
:10209000982B80911E01882311F0946001C09B7FD2
:1020A0009093B8000E94750F08958091000181708F
:1020B0008295880F807E9091B8009F7920910901C8
:1020C00021702295220F220F207C982B922B909327
:1020D000B8000E94750F0895629FD001739FF001B0
:1020E000829FE00DF11D649FE00DF11D929FF00DA8
:1020F000839FF00D749FF00D659FF00D9927729FDF
:10210000B00DE11DF91F639FB00DE11DF91FBD0169
:10211000CF0111240895AA1BBB1B51E107C0AA1FC0
:10212000BB1FA617B70710F0A61BB70B881F991F78
:102130005A95A9F780959095BC01CD01089597FB1C
:10214000092E07260AD077FD04D0E5DF06D000204F
:102150001AF4709561957F4F0895F6F790958195E3
:102160009F4F0895A1E21A2EAA1BBB1BFD010DC0B3
:10217000AA1FBB1FEE1FFF1FA217B307E407F50737
:1021800020F0A21BB30BE40BF50B661F771F881F13
:10219000991F1A9469F760957095809590959B01A9
:1021A000AC01BD01CF010895FB019F01E8944230CD
:1021B000C4F04532B4F44A3029F497FB1EF49095EC
:1021C00081959F4F642F77270E948B10805D8A3303
:1021D0000CF0895D8193CB010097A1F716F45DE2C5
:1021E00051931082C9010C94F510DC01FC01672F9A
:1021F00071917723E1F7329704C07C916D937083DE
:0E2200006291AE17BF07C8F30895F894FFCFA0
:10220E00014B0451040903350246726F6E7420723D
:10221E0069676874203A200046726F6E74206C6590
:0E222E00667420203A20000A0001D002010050
:00000001FF
