:100000000C942A000C947C000C94A9000C94D6004B
:100010000C9447000C9447000C9447000C94470044
:100020000C9447000C9447000C947B030C944700FD
:100030000C9447000C9408050C9447000C9447005E
:100040000C9447000C9447000C9447000C94470014
:100050000C94470011241FBECFE5D8E0DEBFCDBF12
:1000600010E0A0E6B0E0ECE5FDE002C005900D92E6
:10007000A638B107D9F710E0A6E8B0E001C01D929C
:10008000A53EB107E1F70E9449000C94AC060C9420
:1000900000001BBA87E088BB8CEF85BB81E682BB82
:1000A0001ABA8BEB87BB14BA82E981BB0E94630446
:1000B0000E941B028091AD0081608093AD0086E8B4
:1000C00090E064E00E94F8050E94400686E890E017
:1000D0000E942E0680918600909187006AE00E941F
:1000E000970580E690E00E94E504E9CF089590939B
:1000F00067008093660008951F920F920FB60F92CB
:1001000011242F933F934F935F936F937F938F931C
:100110009F93AF93BF93EF93FF93E0916600F091AD
:1001200067000995FF91EF91BF91AF919F918F91DA
:100130007F916F915F914F913F912F910F900FBEE3
:100140000F901F9018950895909365008093640018
:1001500008951F920F920FB60F9211242F933F9381
:100160004F935F936F937F938F939F93AF93BF93BF
:10017000EF93FF93E0916400F09165000995FF9182
:10018000EF91BF91AF919F918F917F916F915F910F
:100190004F913F912F910F900FBE0F901F90189588
:1001A0000895909363008093620008951F920F92C8
:1001B0000FB60F9211242F933F934F935F936F933A
:1001C0007F938F939F93AF93BF93EF93FF93E091B0
:1001D0006200F09163000995FF91EF91BF91AF919B
:1001E0009F918F917F916F915F914F913F912F914F
:1001F0000F900FBE0F901F901895369B03C020E004
:1002000030E009C0806487B986ED86B93699FECFA3
:10021000349A24B135B1C90108958FB9779BFECFC7
:1002200008958FEF8FB9779BFECF8FB108958FEF31
:100230008FB9779BFECF3FB18FEF8FB9779BFECF02
:100240002FB1932F80E030E0282B392BC90108957E
:100250009FB9779BFECF8FB9779BFECF0895FC01A6
:1002600090E006C080818FB9779BFECF9F5F31966B
:100270009617C0F30895FC0190E02FEF06C02FB948
:10028000779BFECF8FB181939F5F9617C0F3089540
:100290009C01C09883E08FB9779BFECFC9010E9473
:1002A00028018FEF8FB9779BFECF8FB1C09A089549
:1002B0001F93CF93DF939C01EB01142FC09883E031
:1002C0008FB9779BFECFC9010E942801CE01612F13
:1002D0000E943B01C09ADF91CF911F910895C09871
:1002E00086E08FB9779BFECFC09A0895C09884E0CE
:1002F0008FB9779BFECFC09A0895C09885E08FB9DB
:10030000779BFECF8FEF8FB9779BFECF8FB1C09ACF
:100310000895FF920F931F93CF93DF93EC01162F55
:10032000072FF42E0E947D0180FDFCCF0E946F01FB
:10033000C09882E08FB9779BFECFCE010E94280142
:10034000812F902F9C01F90190E006C080818FB928
:10035000779BFECF9F5F31969F15C0F3C09ADF91C8
:10036000CF911F910F91FF9008951F93CF93DF932B
:10037000EC01162F0E947D0180FDFCCF0E946F01D1
:10038000C09882E08FB9779BFECFCE010E942801F2
:100390001FB9779BFECFC09ADF91CF911F9108952F
:1003A0008091BE008FB9779BFECF949A0000000029
:1003B000949808958F709091BE00907F982B9093A1
:1003C000BE000E94D00108958295807F9091BE006A
:1003D0009F70982B9093BE000E94D001C49A82E334
:1003E00090E001C0000001972FEF8F3F9207D1F7F7
:1003F000C49808951F93182F82958F700E94E4016E
:10040000812F0E94E40186E990E001C0000001977D
:100410002FEF8F3F9207D1F71F910895C3980E9445
:10042000FA0186E990E001C0000001972FEF8F3FAD
:100430009207D1F7089583E00E94E40180E596E4F5
:1004400001C0000001972FEF8F3F9207D1F783E0A3
:100450000E94E4018CE795E101C0000001972FEFB5
:100460008F3F9207D1F783E00E94E4018CE795E18A
:1004700001C0000001972FEF8F3F9207D1F782E074
:100480000E94E4018CE795E101C0000001972FEF85
:100490008F3F9207D1F788E20E940E028CE795E128
:1004A00001C0000001972FEF8F3F9207D1F788E03E
:1004B0000E940E028CE795E101C0000001972FEF2A
:1004C0008F3F9207D1F781E00E940E028CE795E101
:1004D00001C0000001972FEF8F3F9207D1F782E014
:1004E0000E940E028CE795E101C0000001972FEFFA
:1004F0008F3F9207D1F78CE00E940E028CE795E1C6
:1005000001C0000001972FEF8F3F9207D1F70895A8
:1005100081E00E940E028CE795E101C00000019786
:100520002FEF8F3F9207D1F70895C39A0E94FA01E7
:1005300082E390E001C0000001972FEF8F3F920708
:10054000D1F70895CF93DF93EC0102C00E9495028A
:10055000FE01219684918823C9F7DF91CF910895F8
:10056000CF93DF93EC0103C021960E94950288810E
:100570008823D1F7DF91CF9108951F93CF93DF9315
:10058000162FEC01C40FD11D04C021960E949502C4
:1005900011508881882311F01123B9F7DF91CF9191
:1005A0001F9108956068813009F4605C862F0E9475
:1005B0000E020895EF92FF920F931F938C017B011F
:1005C0000E948802C8010E94A20281E060E00E94AD
:1005D000D202C7010E94A2021F910F91FF90EF90DB
:1005E00008951F93142F0E94D20204C080E20E943B
:1005F000950211501123D1F71F910895CF93DF93E6
:1006000081E00E94FD00EC0183E0CC3FD80778F444
:1006100000000000000081E00E94FD00C80FD91F0B
:10062000D695C795C233D10510F481E018C082E099
:10063000C434D80710F482E012C082E0CC3BD80763
:1006400010F483E00CC083E0C631D80710F484E0D6
:1006500006C0CE53D34010F080E001C085E0DF91AA
:10066000CF91089580918F00882341F00E94FE026F
:10067000882311F410928F0080E008950E94FE02FA
:1006800080938F0008951F9310918E00112349F0DD
:100690000E94FE02882311F010E007C010928E0025
:1006A00004C00E94FE0280938E00812F1F91089546
:1006B000D09AD89821E030E007C01092BF00809116
:1006C000BF0090E00C97DCF3215030408FEF2F3FBC
:1006D000380799F7D0980895CF93DF9380E00E9470
:1006E000FD00EC018530910510F00E945803CE0109
:1006F000DF91CF9108951F920F920FB60F921124A0
:100700008F939F938091990090919A000196909376
:100710009A00809399008091BF008F5F8093BF0003
:100720008091C0008F5F8093C0008150893008F4B1
:1007300084C08091AD0080FF09C08091AE0090918F
:10074000AF0001969093AF008093AE008091AD0012
:1007500081FF09C08091B0009091B1000196909303
:10076000B1008093B0008091AD0082FF09C08091FC
:10077000B2009091B30001969093B3008093B200C1
:100780008091AD0083FF09C08091B4009091B500C5
:1007900001969093B5008093B4008091AD0084FFE2
:1007A00009C08091B6009091B70001969093B70070
:1007B0008093B6008091AD0085FF09C08091B8009C
:1007C0009091B90001969093B9008093B800809100
:1007D000AD0086FF09C08091BA009091BB000196E0
:1007E0009093BB008093BA008091AD0087FF09C051
:1007F0008091BC009091BD0001969093BD008093C4
:10080000BC0080919B0080FF16C08091C100909138
:10081000C200892B39F415BC80919B008E7F809398
:100820009B0009C08091C1009091C20001979093F4
:10083000C2008093C1001092C0009F918F910F90D1
:100840000FBE0F901F90189590919B009160909310
:100850009B007093C2006093C100809583BD8EE1C0
:1008600085BD089590919B009E7F90939B00982F4B
:10087000909593BD882319F08EE185BD089515BC30
:1008800008951092BF00282F30E02F5F3F4F8091D6
:10089000BF0090E028173907D4F708959C0109C0DC
:1008A0001092BF008091BF0090E00C97DCF32150C4
:1008B000304021153105A1F7089502C000000197CD
:1008C0000097E1F708951BBA87E088BB8CEF85BBE2
:1008D00081E682BB1ABA8BEB87BB14BA82E981BB73
:1008E000F89410BC89E189B91BB886E880BD88E915
:1008F0008AB917B886E186B910BE8FE085BF1BBEE6
:1009000014BE8AE083BF87EC8CBF15BC8FEF83BD1C
:1009100082E089BF80E58DB981E08EB97894089531
:100920000F931F93462F0CE910E0B80150E00E948E
:100930006706C8010E94B0021F910F910895EF92BF
:10094000FF920F931F93DF93CF93CDB7DEB76197DD
:100950000FB6F894DEBF0FBECDBF262F042F7E0149
:100960000894E11CF11CB701422F50E00E94670679
:10097000F70101900020E9F73197EE19FF09102FD8
:100980001E1B11165CF4115080E30E949502112386
:10099000D1F7CE0101960E94B00206C01195C701A1
:1009A000602F412F0E94BD0261960FB6F894DEBF02
:1009B0000FBECDBFCF91DF911F910F91FF90EF90B0
:1009C00008955D9BFECF8CB90895FC0104C05D9B2A
:1009D000FECF31968CB980818823C9F7089503C072
:1009E0005D9BFECF2CB9FC01019624912223C1F717
:1009F0000895FC01E40FF11D05C05D9BFECF31960B
:100A00008CB961508081882311F06623B1F7089575
:100A10001F920F920FB60F9211242F938F939F93D3
:100A2000EF93FF932091930080919200922F981B57
:100A30009032A8F480919100E82FF0E09CB1EC5343
:100A4000FF4F90838F5F809391002F5F20939300DF
:100A5000813210F0109291001092C30006C08CB148
:100A60008093950081E08093C300FF91EF919F9167
:100A70008F912F910F900FBE0F901F90189510928D
:100A8000C3009091920080919300891711F4E0E0E7
:100A900013C09F5F9093920080919000813210F07C
:100AA0001092900080919000E82FF0E0EC53FF4FFF
:100AB000E0818F5F809390008E2F08951092C30085
:100AC000DC0120E014C09F5F909392008091900021
:100AD000E82FF0E0EC53FF4F90819C938F5F809361
:100AE0009000813210F0109290002F5F119690913B
:100AF000920080919300891711F0261720F3822F1E
:100B000008958091930090919200891B08955798C1
:100B10008CB18093940010929000109291001092EA
:100B20009200109293001092C300579A08950F9369
:100B30001F93DF93CF93CDB7DEB761970FB6F894CD
:100B4000DEBF0FBECDBF462F8E010F5F1F4FB80116
:100B500050E00E946706C8010E94E50461960FB646
:100B6000F894DEBF0FBECDBFCF91DF911F910F91E3
:100B70000895FF920F931F93DF93CF93CDB7DEB706
:100B800061970FB6F894DEBF0FBECDBF262FF42EAF
:100B90008E010F5F1F4FB801422F50E00E94670681
:100BA000F80101900020E9F73197E01BF10B4F2D80
:100BB0004E1B141664F480E341505D9BFECF8CB94C
:100BC0004423D1F7CE0101960E94E50405C041956A
:100BD000C8016F2D0E94F90461960FB6F894DEBF2C
:100BE0000FBECDBFCF91DF911F910F91FF90089560
:100BF000CF93DF93EC018091960090919700885EEF
:100C0000934000F10E94880280E060E00E94D202DE
:100C100088E690E00E94B002888199816AE00E9493
:100C2000900481E060E00E94D20286E790E00E949A
:100C3000B0028A819B816AE00E9490041092970022
:100C40001092960080919600909197000196909353
:100C5000970080939600DF91CF9108950F931F9393
:100C60008C0182E00E94FD00F8019183808383E083
:100C70000E94FD00F801938382831F910F910895D4
:100C80008091AE009091AF0085369105F8F080918B
:100C900084000E94DA01809198009091840088235A
:100CA00011F4990F01C0969590938400809184006F
:100CB000883020F081E08093980004C0823010F4E6
:100CC000109298001092AF001092AE000895FB01B0
:100CD0009F01E8944230C4F04532B4F44A3029F41C
:100CE00097FB1EF4909581959F4F642F77270E9464
:100CF0009806805D8A330CF0895D8193CB01009763
:100D0000A1F716F45DE251931082C9010C94880694
:100D1000DC01FC01672F71917723E1F7329704C062
:100D20007C916D9370836291AE17BF07C8F30895ED
:100D3000AA1BBB1B51E107C0AA1FBB1FA617B70701
:100D400010F0A61BB70B881F991F5A95A9F780951D
:0C0D50009095BC01CD010895F894FFCFF0
:100D5C000A00D000A30076005265617220726967A8
:100D6C006874203A200052656172206C65667420AC
:060D7C00203A20000100F6
:00000001FF
