:100000000C9424050C940E060C943B060C94680684
:100010000C9441050C9441050C9441050C94410548
:100020000C9441050C9441050C940D090C94410568
:100030000C9441050C949A0A0C9441050C944105CA
:100040000C9441050C9441050C9441050C944C0E04
:100050000C944105207C20000A52454144494E47FA
:1000600020414C4C2052503620524547495354456C
:1000700052533A000A416C6C206F6B650A000A49C2
:100080003243204552524F52202D203078303020BC
:10009000427573206572726F722064756520746F8B
:1000A00020616E20696C6C6567616C20535441520D
:1000B00054206F722053544F5020636F6E646974E4
:1000C000696F6E0A000A493243204552524F52204E
:1000D0002D2030784638204E6F2072656C65766131
:1000E0006E7420737461746520696E666F726D61E1
:1000F00074696F6E20617661696C61626C653B202A
:100100005457494E54203D209330940A000A4932F6
:1001100043204552524F52202D203078413020410B
:100120002053544F5020636F6E646974696F6E2062
:100130006F7220726570656174656420535441521A
:100140005420636F6E646974696F6E2068617320F8
:100150006265656E2072656365697665642077689F
:10016000696C65207374696C6C206164647265737A
:1001700073656420617320536C6176650A000A49D7
:100180003243204552524F52202D203078393820AA
:1001900050726576696F75736C79206164647265FD
:1001A0007373656420776974682067656E65726132
:1001B0006C2063616C6C3B206461746120686173C6
:1001C000206265656E2072656365697665643B20B3
:1001D0004E4F542041434B20686173206265656E29
:1001E0002072657475726E65640A000A4932432094
:1001F0004552524F52202D203078393020507265B0
:1002000076696F75736C7920616464726573736568
:100210006420776974682067656E6572616C20631D
:10022000616C6C3B2064617461206861732062655D
:10023000656E2072656365697665643B2041434B5A
:1002400020686173206265656E2072657475726ED8
:1002500065640A000A493243204552524F52202D0C
:1002600020307838382050726576696F75736C79F4
:1002700020616464726573736564207769746820B3
:100280006F776E20534C412B573B20646174612083
:10029000686173206265656E207265636569766565
:1002A000643B204E4F542041434B206861732062D1
:1002B00065656E2072657475726E65640A000A4920
:1002C0003243204552524F52202D20307838302072
:1002D00050726576696F75736C79206164647265BC
:1002E000737365642077697468206F776E20534C50
:1002F000412B573B20646174612068617320626503
:10030000656E2072656365697665643B2041434B89
:1003100020686173206265656E2072657475726E07
:1003200065640A000A493243204552524F52202D3B
:100330002030783738204172626974726174696F55
:100340006E206C6F737420696E20534C412B522FBA
:1003500057206173204D61737465723B2047656E51
:100360006572616C2063616C6C206164647265739A
:100370007320686173206265656E207265636569CC
:100380007665643B2041434B20686173206265655C
:100390006E2072657475726E65640A000A49324394
:1003A000204552524F52202D20307837302047655B
:1003B0006E6572616C2063616C6C2061646472654F
:1003C000737320686173206265656E207265636572
:1003D000697665643B2041434B2068617320626508
:1003E000656E2072657475726E65640A000A493222
:1003F00043204552524F52202D203078363820412C
:1004000072626974726174696F6E206C6F737420AC
:10041000696E20534C412B522F57206173204D6140
:10042000737465723B206F776E20534C412B5720BD
:10043000686173206265656E2072656365697665C3
:10044000643B2041434B20686173206265656E20E8
:1004500072657475726E65640A000A4932432045FC
:1004600052524F52202D2030783630204F776E2058
:10047000534C412B5720686173206265656E207272
:10048000656365697665642041434B20686173202C
:100490006265656E2072657475726E65640A000A25
:1004A000493243204552524F52202D203078433854
:1004B000204C6173742064617461206279746520DA
:1004C000696E205457445220686173206265656EDE
:1004D000207472616E736D6974746564202854575A
:1004E0004541203D20933094293B2041434B2068D7
:1004F0006173206265656E20726563656976656407
:100500000A000A493243204552524F52202D2030D2
:100510007843302044617461206279746520696E8B
:10052000205457445220686173206265656E2074C0
:1005300072616E736D69747465643B204E4F542014
:1005400041434B20686173206265656E207265636C
:1005500065697665640A000A493243204552524F64
:1005600052202D2030784238204461746120627915
:10057000746520696E20545744522068617320626C
:1005800065656E207472616E736D69747465643B29
:100590002041434B20686173206265656E2072655F
:1005A0006365697665640A000A4932432045525200
:1005B0004F52202D2030784230204172626974728F
:1005C0006174696F6E206C6F737420696E20534C78
:1005D000412B522F57206173204D61737465723B1C
:1005E000206F776E20534C412B522068617320623C
:1005F00065656E2072656365697665643B2041437D
:100600004B20686173206265656E20726574757237
:100610006E65640A000A493243204552524F522007
:100620002D2030784138204F776E20534C412B528B
:1006300020686173206265656E2072656365697606
:1006400065643B2041434B20686173206265656EA1
:100650002072657475726E65640A000A493243201F
:100660004552524F52202D20307835382044617445
:1006700061206279746520686173206265656E200F
:10068000726563656976656420616E64204E4143DE
:100690004B207472616E736D69747465640A000A2C
:1006A000493243204552524F52202D203078353068
:1006B00020446174612062797465206861732062EE
:1006C00065656E20726563656976656420616E6438
:1006D0002041434B207472616E736D69747465645C
:1006E0000A000A493243204552524F52202D2030F1
:1006F00078343820534C412B522068617320626556
:10070000656E207472616E736D69747465642061C6
:100710006E64204E41434B20726563656976656463
:100720000A000A493243204552524F52202D2030B0
:1007300078343020534C412B52206861732062651D
:10074000656E207472616E736D6974746564206186
:100750006E642041434B2072656365697665640A67
:10076000000A493243204552524F52202D20307802
:10077000333020446174612062797465206861734C
:10078000206265656E207472616E736D6974746544
:100790006420616E64204E41434B2072656365693D
:1007A0007665640A000A493243204552524F52206E
:1007B0002D2030783238204461746120627974656C
:1007C00020686173206265656E207472616E736D5E
:1007D000697474656420616E642041434B207265C6
:1007E0006365697665640A000A49324320455252BE
:1007F0004F52202D203078313820534C412B572038
:10080000686173206265656E207472616E736D69D4
:100810007474656420616E642041434B207265638B
:1008200065697665640A000A493243204552524F91
:1008300052202D203078323020534C412B572068E5
:100840006173206265656E207472616E736D697488
:1008500074656420616E64204E41434B2072656371
:1008600065697665640A000A493243204552524F51
:1008700052202D20307833382041726269747261C1
:1008800074696F6E206C6F73740A000A49324320DA
:100890004552524F52202D20307831302052657011
:1008A000656174656420535441525420686173201B
:1008B0006265656E207472616E736D6974746564CF
:1008C0000A000A493243204552524F52202D20300F
:1008D0007830382053544152542068617320626547
:1008E000656E207472616E736D69747465640A005C
:1008F00052005000423D000A00436F6D70617373F7
:1009000020416363656C65726F6D65746572205A12
:1009100020093D20000A00436F6D70617373204110
:100920006363656C65726F6D65746572205920092B
:100930003D20000A00436F6D706173732041636353
:10094000656C65726F6D65746572205820093D2075
:10095000000A00436F6D70617373204D61676E65AF
:10096000746F6D65746572205A20093D20000A007D
:10097000436F6D70617373204D61676E65746F6D49
:1009800065746572205920093D20000A00436F6D8F
:1009900070617373204D61676E65746F6D6574650A
:1009A00072205820093D20000A00436F6D7061736A
:1009B0007320526F6C6C200909093D20000A004326
:1009C0006F6D706173732050697463680909093D24
:1009D00020000A00436F6D7061737320426561727D
:1009E000696E67202020202020202020203D20002C
:1009F0000A00436F6D706173732042656172696EA6
:100A000067204279746520202020203D20000A00C4
:100A1000436F6D7061737320536F66747761726595
:100A20002056657273696F6E203D20000C000A002D
:100A30000A00446520646174612076616E206465FB
:100A4000206B6C6F6B0A000011241FBECFE5D8E04D
:100A5000DEBFCDBF10E0A0E6B0E0EAE1FCE202C0FC
:100A600005900D92AA38B107D9F711E0AAE8B0E0D5
:100A700001C01D92A83BB107E1F70E945E050C94EE
:100A80000B160C9400008091590190915A01895ED7
:100A9000934098F080E091E00E94960F80E091E012
:100AA0000E94170F0E943D10BC0180E091E00E945F
:100AB000BE0E10925A011092590108952F923F9242
:100AC0004F925F926F927F928F929F92AF92BF925E
:100AD000CF92DF92EF92FF920F931F931BBA87E0A2
:100AE00088BB8CEF85BB81E682BB1ABA8BEB87BBD8
:100AF00014BA82E981BB89E890E10E949F0B0E94B1
:100B0000F5090E94AD0788E40E948A0B8091560186
:100B100081608093560180915601826080935601D6
:100B2000809156018860809356010F2EF0E0EF2EE1
:100B3000F0E0FF2EF0E00F2FF0E01F2FF02D0F2E32
:100B4000F0E02F2EF0E03F2EFAEF4F2EF3E45F2E71
:100B5000F02D0F2EF0E06F2EF0E07F2EF0EA8F2EBA
:100B6000F1EC9F2EF02D0F2EF0E0AF2EF0E0BF2E17
:100B7000F0EACF2EF1E4DF2EF02D80E090E0A0E04F
:100B8000BFE38093340190933501A0933601B09375
:100B90003701E0923C01F0923D0100933E01109339
:100BA0003F01209238013092390140923A0150922F
:100BB0003B016091080170910901882777FD8095BC
:100BC000982F0E94CB146093240170932501809389
:100BD000260190932701E0922801F09229010093C9
:100BE0002A0110932B0160923001709231018092A2
:100BF000320190923301A0922C01B0922D01C0924B
:100C00002E01D0922F010E9443050E94B80FB5CF4C
:100C10000895909379008093780008951F920F9221
:100C20000FB60F9211242F933F934F935F936F93BF
:100C30007F938F939F93AF93BF93EF93FF93E09135
:100C40007800F09179000995FF91EF91BF91AF91F4
:100C50009F918F917F916F915F914F913F912F91D4
:100C60000F900FBE0F901F901895089590937700E6
:100C70008093760008951F920F920FB60F92112461
:100C80002F933F934F935F936F937F938F939F9394
:100C9000AF93BF93EF93FF93E0917600F0917700CD
:100CA0000995FF91EF91BF91AF919F918F917F91A6
:100CB0006F915F914F913F912F910F900FBE0F90C9
:100CC0001F9018950895909375008093740008956F
:100CD0001F920F920FB60F9211242F933F934F93B1
:100CE0005F936F937F938F939F93AF93BF93EF9394
:100CF000FF93E0917400F09175000995FF91EF91D9
:100D0000BF91AF919F918F917F916F915F914F9123
:100D10003F912F910F900FBE0F901F901895369B0B
:100D200003C020E030E009C0806487B986ED86B951
:100D30003699FECF349A24B135B1C90108958FB9DF
:100D4000779BFECF08958FEF8FB9779BFECF8FB142
:100D500008958FEF8FB9779BFECF3FB18FEF8FB99B
:100D6000779BFECF2FB1932F80E030E0282B392BDB
:100D7000C90108959FB9779BFECF8FB9779BFECFAE
:100D80000895FC0190E006C080818FB9779BFECF6B
:100D90009F5F31969617C0F30895FC0190E02FEF06
:100DA00006C02FB9779BFECF8FB181939F5F9617B7
:100DB000C0F308959C01C09883E08FB9779BFECF64
:100DC000C9010E94BA068FEF8FB9779BFECF8FB112
:100DD000C09A08951F93CF93DF939C01EB01142FCA
:100DE000C09883E08FB9779BFECFC9010E94BA06F5
:100DF000CE01612F0E94CD06C09ADF91CF911F9145
:100E00000895C09886E08FB9779BFECFC09A089569
:100E1000C09884E08FB9779BFECFC09A0895C098A0
:100E200085E08FB9779BFECF8FEF8FB9779BFECF91
:100E30008FB1C09A0895FF920F931F93CF93DF93C2
:100E4000EC01162F072FF42E0E940F0780FDFCCF18
:100E50000E940107C09882E08FB9779BFECFCE0138
:100E60000E94BA06812F902F9C01F90190E006C0E4
:100E700080818FB9779BFECF9F5F31969F15C0F31E
:100E8000C09ADF91CF911F910F91FF9008951F930A
:100E9000CF93DF93EC01162F0E940F0780FDFCCF4C
:100EA0000E940107C09882E08FB9779BFECFCE01E8
:100EB0000E94BA061FB9779BFECFC09ADF91CF91EF
:100EC0001F910895809167018FB9779BFECF949A07
:100ED00000000000949808958F7090916701907FB2
:100EE000982B909367010E94620708958295807FF6
:100EF000909167019F70982B909367010E94620701
:100F0000C49A82E390E001C0000001972FEF8F3F69
:100F10009207D1F7C49808951F93182F82958F7068
:100F20000E947607812F0E94760786E990E001C033
:100F3000000001972FEF8F3F9207D1F71F9108957F
:100F4000C3980E948C0786E990E001C000000197D9
:100F50002FEF8F3F9207D1F7089583E00E94760725
:100F600080E596E401C0000001972FEF8F3F9207C4
:100F7000D1F783E00E9476078CE795E101C000007D
:100F800001972FEF8F3F9207D1F783E00E947607FA
:100F90008CE795E101C0000001972FEF8F3F92078A
:100FA000D1F782E00E9476078CE795E101C000004E
:100FB00001972FEF8F3F9207D1F788E20E94A00799
:100FC0008CE795E101C0000001972FEF8F3F92075A
:100FD000D1F788E00E94A0078CE795E101C00000EE
:100FE00001972FEF8F3F9207D1F781E00E94A00772
:100FF0008CE795E101C0000001972FEF8F3F92072A
:10100000D1F782E00E94A0078CE795E101C00000C3
:1010100001972FEF8F3F9207D1F78CE00E94A00736
:101020008CE795E101C0000001972FEF8F3F9207F9
:10103000D1F7089581E00E94A0078CE795E101C0F7
:10104000000001972FEF8F3F9207D1F70895C39AC1
:101050000E948C0782E390E001C0000001972FEF0F
:101060008F3F9207D1F70895CF93DF93EC0102C031
:101070000E942708FE01219684918823C9F7DF91F9
:10108000CF910895CF93DF93EC0103C021960E9486
:10109000270888818823D1F7DF91CF9108951F9386
:1010A000CF93DF93162FEC01C40FD11D04C02196FE
:1010B0000E94270811508881882311F01123B9F765
:1010C000DF91CF911F9108956068813009F4605CD1
:1010D000862F0E94A0070895EF92FF920F931F930F
:1010E0008C017B010E941A08C8010E94340881E02B
:1010F00060E00E946408C7010E9434081F910F91AC
:10110000FF90EF9008951F93142F0E94640804C06D
:1011100080E20E94270811501123D1F71F910895F2
:10112000CF93DF9381E00E948F06EC0183E0CC3FF8
:10113000D80778F400000000000081E00E948F06CC
:10114000C80FD91FD695C795C233D10510F481E0D9
:1011500018C082E0C434D80710F482E012C082E0E4
:10116000CC3BD80710F483E00CC083E0C631D8072D
:1011700010F484E006C0CE53D34010F080E001C0EC
:1011800085E0DF91CF91089580918B00882341F015
:101190000E949008882311F410928B0080E008953B
:1011A0000E94900880938B0008951F9310918A00ED
:1011B000112349F00E949008882311F010E007C025
:1011C00010928A0004C00E94900880938A00812FA8
:1011D0001F910895D09AD89821E030E007C010926E
:1011E00068018091680190E00C97DCF32150304059
:1011F0008FEF2F3F380799F7D0980895CF93DF935B
:1012000080E00E948F06EC018530910510F00E946D
:10121000EA08CE01DF91CF9108951F920F920FB689
:101220000F9211248F939F9380911001909111013F
:1012300001969093110180931001809168018F5F56
:1012400080936801809169018F5F8093690181506B
:10125000893008F484C08091560180FF09C08091D4
:10126000570190915801019690935801809357012E
:101270008091560181FF09C08091590190915A01D6
:10128000019690935A01809359018091560182FFF3
:1012900009C080915B0190915C01019690935C0183
:1012A00080935B018091560183FF09C080915D01AD
:1012B00090915E01019690935E0180935D01809113
:1012C000560184FF09C080915F01909160010196F1
:1012D0009093600180935F018091560185FF09C062
:1012E00080916101909162010196909362018093D7
:1012F00061018091560186FF09C080916301909140
:10130000640101969093640180936301809156017A
:1013100087FF09C0809165019091660101969093C5
:101320006601809365018091440180FF16C0809121
:101330006A0190916B01892B39F415BC80914401AD
:101340008E7F8093440109C080916A0190916B0166
:10135000019790936B0180936A01109269019F91AC
:101360008F910F900FBE0F901F9018959091440190
:1013700091609093440170936B0160936A01809532
:1013800083BD8EE185BD0895909144019E7F909329
:101390004401982F909593BD882319F08EE185BD67
:1013A000089515BC089510926801282F30E02F5F32
:1013B0003F4F8091680190E028173907D4F70895CE
:1013C0009C0109C0109268018091680190E00C971F
:1013D000DCF32150304021153105A1F7089502C0FA
:1013E000000001970097E1F708951BBA87E088BBDA
:1013F0008CEF85BB81E682BB1ABA8BEB87BB14BA34
:1014000082E981BBF89410BC89E189B91BB886E8F0
:1014100080BD88E98AB917B886E186B910BE8FE029
:1014200085BF1BBE14BE8AE083BF87EC8CBF15BC92
:101430008FEF83BD82E089BF80E58DB981E08EB9F1
:10144000789408950F931F93462F05E411E0B80197
:1014500050E00E94DA15C8010E9442081F910F91C6
:101460000895EF92FF920F931F93DF93CF93CDB721
:10147000DEB761970FB6F894DEBF0FBECDBF262F43
:10148000042F7E010894E11CF11CB701422F50E0AB
:101490000E94DA15F70101900020E9F73197EE1963
:1014A000FF09102F1E1B11165CF4115080E30E94DF
:1014B00027081123D1F7CE0101960E94420806C0E9
:1014C0001195C701602F412F0E944F0861960FB6FA
:1014D000F894DEBF0FBECDBFCF91DF911F910F916A
:1014E000FF90EF9008955D9BFECF8CB90895FC01AD
:1014F00004C05D9BFECF31968CB980818823C9F7EB
:10150000089503C05D9BFECF2CB9FC010196249188
:101510002223C1F70895FC01E40FF11D05C05D9B76
:10152000FECF31968CB961508081882311F06623FB
:10153000B1F708951F920F920FB60F9211242F93B7
:101540008F939F93EF93FF9320918F0080918E0054
:10155000922F981B9032A8F480918D00E82FF0E034
:101560009CB1E359FE4F90838F5F80938D002F5F76
:1015700020938F00813210F010928D0010926C0138
:1015800006C08CB18093910081E080936C01FF9143
:10159000EF919F918F912F910F900FBE0F901F9001
:1015A000189510926C0190918E0080918F00891790
:1015B00011F4E0E013C09F5F90938E0080918C0047
:1015C000813210F010928C0080918C00E82FF0E0B6
:1015D000E359FE4FE0818F5F80938C008E2F08953A
:1015E00010926C01DC0120E014C09F5F90938E008C
:1015F00080918C00E82FF0E0E359FE4F90819C939E
:101600008F5F80938C00813210F010928C002F5FDE
:10161000119690918E0080918F00891711F02617F6
:1016200020F3822F089580918F0090918E00891B66
:10163000089557988CB18093900010928C0010926E
:101640008D0010928E0010928F0010926C01579AAC
:1016500008950F931F93DF93CF93CDB7DEB76197B4
:101660000FB6F894DEBF0FBECDBF462F8E010F5FC1
:101670001F4FB80150E00E94DA15C8010E94770A96
:1016800061960FB6F894DEBF0FBECDBFCF91DF914C
:101690001F910F910895FF920F931F93DF93CF93A4
:1016A000CDB7DEB761970FB6F894DEBF0FBECDBFE2
:1016B000262FF42E8E010F5F1F4FB801422F50E0EE
:1016C0000E94DA15F80101900020E9F73197E01B3C
:1016D000F10B4F2D4E1B141664F480E341505D9BBB
:1016E000FECF8CB94423D1F7CE0101960E94770A30
:1016F00005C04195C8016F2D0E948B0A61960FB6F7
:10170000F894DEBF0FBECDBFCF91DF911F910F9137
:10171000FF900895F89480B911B88FEF83B984E0F1
:1017200086BF8091920081608093920078940895A2
:10173000089590937B0080937A0008950895909384
:101740007D0080937C000895DF93CF930F92CDB7F7
:10175000DEB786E989838981815089838F5FD9F7D4
:101760000F90CF91DF910895DF93CF930F92CDB774
:10177000DEB706B600FC6EC08091920080FF4EC0BE
:1017800080919900882309F465C08130C9F486E905
:1017900089838981815089838F5FD9F792E0909303
:1017A000DB008091940080939B0080919500809352
:1017B0009C001092920085EA86BF909399004AC0DF
:1017C0008230D9F486E989838981815089838F5F4A
:1017D000D9F7809196008F5F8093DB008091940011
:1017E00081608093940080939B001092920085EA20
:1017F00086BF83E0809399002DC0833059F5109205
:10180000990080919700909198002FEF8F3F920759
:1018100009F1E0917A00F0917B001BC006B600FC54
:10182000FDCF909193009923A9F010929900809197
:101830009200816080939200109294001092980020
:101840001092970010929600E0917C00F0917D003C
:10185000892F09950F90CF91DF910895FF920F93F3
:101860001F93182F062FF42E02C00E94B40B06B649
:1018700000FCFBCF809199008823B9F782E0809328
:101880009900109394000093970010929800F092A2
:1018900096001F910F91FF900895EF92FF920F9382
:1018A0001F93E82E162F042FF22E02C00E94B40BB5
:1018B00006B600FCFBCF809199008823B9F781E040
:1018C000809399001093970010929800E0929400F2
:1018D00000939500F09296001F910F91FF90EF906A
:1018E00008959C0106B600FCFDCF8091920080FF18
:1018F0000CC0ECEAF0E0D90170E06E0F7F1F02C06F
:1019000081918D93E617F707D9F7089506B600FC85
:10191000FDCF809193000895FF920F931F93CF9373
:10192000DF93082FF62EEA01122F02C00E94B40B9B
:1019300006B600FCFBCF809199008823B9F781E0BF
:1019400080939900009394008FEF9FEF90939800FD
:1019500080939700F09295001093960002C00E9429
:10196000B40B06B600FCFBCF809199008823B9F731
:101970008091920080FF05C01F5FCE01612F0E9401
:10198000710CDF91CF911F910F91FF900895EF920D
:10199000FF920F931F93DF93CF930F92CDB7DEB7D4
:1019A000082F7B01142F02C00E94B40B06B600FC66
:1019B000FBCF809199008823B9F786E989838981D3
:1019C000815089838F5FD9F782E0809399000093DB
:1019D00094008FEF9FEF909398008093970010935F
:1019E000960002C00E94B40B06B600FCFBCF8091AB
:1019F00099008823B9F78091920080FF05C01F5F8E
:101A0000C701612F0E94710C0F90CF91DF911F9140
:101A10000F91FF90EF9008951F93DF93CF930F9254
:101A2000CDB7DEB7182F02C00E94B40B06B600FC7B
:101A3000FBCF809199008823B9F786E98983898152
:101A4000815089838F5FD9F782E08093990010934A
:101A500094008FEF9FEF909398008093970081E020
:101A60008093960002C00E94B40B80919900882355
:101A7000D1F78091920080FD02C080E002C0809189
:101A8000AC000F90CF91DF911F9108950F931F939A
:101A9000DF93CF930F92CDB7DEB7182F062F02C07A
:101AA0000E94B40B06B600FCFBCF809199008823FE
:101AB000B9F786E989838981815089838F5FD9F756
:101AC00082E08093DB0010939B0000939C001092B7
:101AD000920085EA86BF0F90CF91DF911F910F9101
:101AE0000895FF920F931F93DF93CF930F92CDB77B
:101AF000DEB7182F062FF42E02C00E94B40B06B6D4
:101B000000FCFBCF809199008823B9F786E989838F
:101B10008981815089838F5FD9F783E08093DB00CF
:101B200010939B0000939C00F0929D0010929200F5
:101B300085EA86BF0F90CF91DF911F910F91FF90A3
:101B40000895EF92FF920F931F93DF93CF930F921D
:101B5000CDB7DEB7182F062FF42EE22E02C00E945A
:101B6000B40B06B600FCFBCF809199008823B9F72F
:101B700086E989838981815089838F5FD9F784E0E1
:101B80008093DB0010939B0000939C00F0929D00DB
:101B9000E0929E001092920085EA86BF0F90CF914E
:101BA000DF911F910F91FF90EF900895DF92EF92D8
:101BB000FF920F931F93DF93CF930F92CDB7DEB7B2
:101BC000182FF62EE42ED22E02C00E94B40B06B6B9
:101BD00000FCFBCF809199008823B9F786E98983BF
:101BE0008981815089838F5FD9F785E08093DB00FD
:101BF00010939B00F0929C00E0929D00D0929E007A
:101C000000939F001092920085EA86BF0F90CF91BB
:101C1000DF911F910F91FF90EF90DF900895EF9269
:101C2000FF920F931F93DF93CF930F92CDB7DEB741
:101C3000082FF62EE72E142F02C00E94B40B06B612
:101C400000FCFBCF809199008823B9F786E989834E
:101C50008981815089838F5FD9F7412F4F5F4093EE
:101C6000DB0000939B00ACE9B0E08F2D9E2D9C0122
:101C7000F90102C081918D938E2F8F198417D0F3B3
:101C80001092920085EA86BF0F90CF91DF911F914D
:101C90000F91FF90EF9008951F920F920FB60F9241
:101CA00011242F933F938F939F93EF93FF9381B1D1
:101CB0008832C9F0893240F4803199F0883199F046
:101CC000883009F04BC00DC0803441F1813420F4DC
:101CD000883309F043C03DC08035A9F08835F1F55F
:101CE0002BC010929A0090919A008091DB00981777
:101CF00050F5E92FF0E0E556FF4F808183B99F5FF3
:101D000090939A0017C080919A0093B1E82FF0E069
:101D1000E555FF4F90838F5F80939A0020919A0042
:101D200030E08091DB0090E001972817390714F428
:101D300085EC18C085E816C083B1E0919A00F0E008
:101D4000E555FF4F808380919200816080939200DF
:101D500008C081B18093930085EA04C081B180936B
:101D6000930084E986BFFF91EF919F918F913F91FE
:101D70002F910F900FBE0F901F901895EF92FF922A
:101D80000F931F938C017B0184E20E94730AF80178
:101D9000848195816AE00E94290B8CE20E94730A7B
:101DA000F801808191816AE00E94290B8CE20E94F7
:101DB000730AF801868197816AE00E94290B8CE200
:101DC0000E94730AF801828193816AE00E94290BC4
:101DD0008CE20E94730AF801808591856AE00E9476
:101DE000290B8CE20E94730AF801828593856AE0D0
:101DF0000E94290B8CE20E94730AC7016AE00E94CC
:101E0000290B8CE20E94730A80E090E06AE00E9455
:101E1000290B8CE20E94730A83E20E94730A8AE013
:101E20000E94730A1F910F91FF90EF900895CF9237
:101E3000DF92EF92FF920F931F938C010E941A087A
:101E400080E060E00E9464089EE7C92E90E0D92EF1
:101E5000C6010E944208F801848195816AE00E94CF
:101E6000220A80E065E00E94640880E890E00E9419
:101E70004208F801828593856AE00E94220A80E088
:101E80006CE00E94640883E8E82E80E0F82EC70129
:101E90000E944208F801808191816AE00E94220A32
:101EA00081E060E00E946408C6010E944208F801D7
:101EB000868197816AE00E94220A81E065E00E94A3
:101EC000640885E890E00E944208F80180859185C9
:101ED0006AE00E94220A81E06CE00E946408C70167
:101EE0000E944208F801828193816AE00E94220ADE
:101EF0001F910F91FF90EF90DF90CF900895EF9298
:101F0000FF920F931F938C017B0183E00E948F0649
:101F1000F8019183808382E00E948F06F70191830C
:101F200080831F910F91FF90EF9008950F931F935F
:101F30008C010496B8010E945810B8016E5F7F4F63
:101F4000C80106960E947F0FF8018681978124813F
:101F50003581821B930B93878287828193812081B5
:101F60003181821B930B918780871F910F91089578
:101F7000809157019091580185369105F8F0809134
:101F800088000E946C078091DC0090918800882373
:101F900011F4990F01C09695909388008091880064
:101FA000883020F081E08093DC0004C0823010F49F
:101FB0001092DC001092580110925701089510926F
:101FC0008E0198E090938F0180939001609391012E
:101FD00050939201409393018AE06EE871E046E0ED
:101FE0000E940F0E089510928E0195E090938F013C
:101FF000809390016093910110929201109293014D
:102000008AE06EE871E046E00E940F0E0895DF93CB
:10201000CF9300D0CDB7DEB78AE063E10E94460DD2
:102020008AE0BE016F5F7F4F42E00E94C70C3A8199
:1020300020E08981280F311DC9010F900F90CF91A9
:10204000DF910895DF93CF9300D0CDB7DEB78AE05C
:1020500061E10E94460D8AE0BE016F5F7F4F42E062
:102060000E94C70C3A8120E08981280F311DC901E7
:102070000F900F90CF91DF910895DF93CF9300D011
:10208000CDB7DEB78AE065E10E94460D8AE0BE0169
:102090006F5F7F4F42E00E94C70C3A8120E0898148
:1020A000280F311DC9010F900F90CF91DF91089536
:1020B000EF92FF920F931F93DF93CF9300D00F9275
:1020C000CDB7DEB78C017B018AE067E10E94460D47
:1020D0008AE0BE016F5F7F4F44E00E94C70C9A8187
:1020E00080E02981820F911DF801918380839C817A
:1020F00080E02B81820F911DF701918380830F90E7
:102100000F900F90CF91DF911F910F91FF90EF9063
:102110000895883609F494C0893688F5803309F427
:102120006EC08133B0F4803109F45AC0813138F483
:10213000882309F4A0C0883009F0A0C04EC08032C6
:1021400009F454C0883209F457C0883109F096C0A8
:1021500050C0883409F459C0893438F4883309F4FC
:1021600042C0803409F08AC04DC0883509F453C09C
:10217000803609F462C0803509F080C049C0803AD9
:1021800009F473C0813AB0F4803809F462C0813830
:1021900038F4803709F457C0883709F06FC056C04B
:1021A000803909F45CC0883909F45CC0883809F0CA
:1021B00065C052C0883BC1F1893B30F4883A71F167
:1021C000803B09F05BC02DC0883CA1F1883F09F439
:1021D0004FC0803C09F052C02AC082EC98E050C049
:1021E0008BE898E04DC087E698E04AC087E298E027
:1021F00047C088EE97E044C085EA97E041C081E699
:1022000097E03EC082E297E03BC082EE96E038C0A5
:102210008FE996E035C08BE596E032C085E196E027
:102220002FC088EA95E02CC087E595E029C082E0C0
:1022300095E026C08FE994E023C08AE594E020C0B1
:102240008DEE93E01DC08CE993E01AC084E293E028
:1022500017C08EEB92E014C084E592E011C08BEEC3
:1022600091E00EC08EE791E00BC08DE091E008C0D8
:1022700085EC90E005C08EE790E002C084E790E036
:102280000E94810A0895CF93DF938AE060E00E9464
:10229000460D8AE068E971E04EE10E94C70C88E5CE
:1022A00090E00E94810AC0E0D0E0CE01877090707B
:1022B000892B21F48AE00E94730A04C084E590E02F
:1022C0000E94810A83E20E94730ACE016AE042E022
:1022D0000E944B0B8AE30E94730AFE01E856FE4FF0
:1022E000808190E06AE043E00E944B0B2196CE3162
:1022F000D105D9F68AE00E94730ADF91CF91089543
:102300008F929F92AF92BF92CF92DF92EF92FF9205
:102310000F931F936C01FC0180809180A280B38099
:102320006481758186819781A50194010E9464145E
:10233000F60120893189428953890E9457157B0112
:102340008C01F6012489358946895789CA01B9016A
:102350000E9465149B01AC01C801B7010E9465147D
:102360007B018C016091DD007091DE008091DF00C7
:102370009091E000A50194010E946414F601208D63
:10238000318D428D538D0E9457159B01AC01C801C0
:10239000B7010E946514DC019B01AC01F6012083AA
:1023A000318342835383CB018093DD009093DE0021
:1023B000A093DF00B093E0001F910F91FF90EF908A
:1023C000DF90CF90BF90AF909F908F9008950F9324
:1023D0001F938C0180E060E00E9464080E941A084C
:1023E00084EF98E00E94340880E062E00E94640874
:1023F000F801848195816AE070E00E94C615CB01E6
:102400006AE00E94220A8EE20E942708F801848175
:1024100095816AE070E00E94C6156AE00E94220A77
:1024200080E067E00E94640882EF98E00E94340830
:10243000F8018281992787FD90956AE00E94220A1F
:1024400080E06CE00E94640880EF98E00E9434080D
:10245000F8018381992787FD90956AE00E94220AFE
:1024600081E060E00E9464081F910F9108950F932E
:102470001F938C018CE29AE00E94810A80E19AE02D
:102480000E94810AF8018081992787FD90956AE072
:102490000E94290B8EE09AE00E94810A82EF99E067
:1024A0000E94810AF8018181992787FD90956AE051
:1024B0000E94290B80EF99E00E94810A84ED99E047
:1024C0000E94810AF801848195816AE00E94290BAB
:1024D00082ED99E00E94810A8FEB99E00E94810AC7
:1024E000F8018281992787FD90956AE00E94290B67
:1024F0008DEB99E00E94810A8AEA99E00E94810AA4
:10250000F8018381992787FD90956AE00E94290B45
:1025100088EA99E00E94810A8DE899E00E94810A88
:10252000F801868197816AE00E94290B8BE899E087
:102530000E94810A80E799E00E94810AF801808563
:1025400091856AE00E94290B8EE699E00E94810A3B
:1025500083E599E00E94810AF801828593856AE00B
:102560000E94290B81E599E00E94810A85E399E0A8
:102570000E94810AF801848595856AE00E94290BF2
:1025800083E399E00E94810A87E199E00E94810A31
:10259000F801868597856AE00E94290B85E199E01C
:1025A0000E94810A89EF98E00E94810AF8018089DF
:1025B00091896AE00E94290B87EF98E00E94810AC6
:1025C0001F910F9108950F931F93CF93DF938C0169
:1025D00080919900882331F580915D0190915E0191
:1025E00085369105F8F01092F70014C080EC0E9437
:1025F000460D8091F700C82FDD27C7FDD09580ECF0
:102600000E940C0DCF51DF4F88838091F7008F5FC0
:102610008093F7006091F700663144F310925E01F9
:1026200010925D018091E100F80180838091E200C9
:1026300081838091E50082838091E600838380918D
:10264000E300992787FD9095982F88272091E40033
:10265000332727FD3095820F931F958384838091C4
:10266000EB00992787FD9095982F88272091EC0003
:10267000332727FD3095820F931F978386838091A0
:10268000ED00992787FD9095982F88272091EE00DF
:10269000332727FD3095820F931F91878087809184
:1026A000EF00992787FD9095982F88272091F000BB
:1026B000332727FD3095820F931F93878287809160
:1026C000F100992787FD9095982F88272091F20097
:1026D000332727FD3095820F931F9587848780913C
:1026E000F300992787FD9095982F88272091F40073
:1026F000332727FD3095820F931F97878687809118
:10270000F500992787FD9095982F88272091F6004E
:10271000332727FD3095820F931F918B808BDF919C
:10272000CF911F910F910895482F6AE00E94BA152A
:10273000282F30E084E0220F331F8A95E1F7842FA1
:102740000E94BA15892F820F0895282F22952F7085
:102750009AE0299F900111248F70820F089590E0D4
:102760006AE00E94290B0895809199008823A9F5B9
:1027700080ED60E00E94460D8DE20E949413682F68
:1027800080ED0E94460D88E20E949413682F80ED30
:102790000E94460D80E00E949413682F80ED0E94F5
:1027A000460D82E00E949413682F80ED0E94460D32
:1027B00081E00E949413682F80ED0E94460D83E013
:1027C0000E949413682F80ED0E94460D8BE00E94BA
:1027D0009413682F80ED0E94460D08950F931F9368
:1027E000CF93DF938C01809199008823E1F580914C
:1027F00057019091580185369105A8F11092FF007C
:102800002AC080ED0E94460D8091FF00C82FD0E0C5
:1028100080ED0E940C0DC850DF4F888382E39AE060
:102820000E94810A8091F80090E06AE00E94290BE2
:1028300080E39AE00E94810A8091F90090E06AE0CA
:102840000E94290B8EE29AE00E94810A8091FF008B
:102850008F5F8093FF006091FF00683090F21092CC
:102860005801109257018091F8008F770E94A513AC
:10287000F80180838091F9000E94A513F8018183FB
:102880008091FA008F730E94A513F80182838091D2
:10289000FB000E94A513F80183838091FC000E9435
:1028A000A513F80184838091FD000E94A513F8010F
:1028B00085838091FE000E94A513F8018683DF9135
:1028C000CF911F910F9108955058BB27AA270ED082
:1028D000B4C0A5D030F0AAD020F031F49F3F11F45D
:1028E0001EF49AC00EF4E095E7FB90C0E92FB6D035
:1028F00080F3BA17620773078407950718F071F41D
:102900009EF5CEC00EF4E0950B2EBA2FA02D0B0134
:10291000B90190010C01CA01A0011124FF27591B24
:1029200099F0593F50F4503E68F11A16F040A22F2A
:10293000232F342F4427585FF3CF4695379527959B
:10294000A795F0405395C9F77EF41F16BA0B620B9A
:10295000730B840BBAF09150A1F0FF0FBB1F661FE1
:10296000771F881FC2F70EC0BA0F621F731F841F24
:1029700048F4879577956795B795F7959E3F08F04A
:10298000B3CF9395880F08F09927EE0F9795879509
:102990000895E89409C097FB3EF490958095709552
:1029A00061957F4F8F4F9F4F9923A9F0F92F96E99B
:1029B000BB279395F695879577956795B795F11110
:1029C000F8CFFAF4BB0F11F460FF1BC06F5F7F4FAD
:1029D0008F4F9F4F16C0882311F096E911C07723BF
:1029E00021F09EE8872F762F05C0662371F096E8C8
:1029F000862F70E060E02AF09A95660F771F881F97
:102A0000DAF7880F9695879597F9089597F99F6754
:102A100080E870E060E008959FEF80EC0895002466
:102A20000A941616170618060906089500240A9433
:102A300012161306140605060895092E0394000CB9
:102A400011F4882352F0BB0F40F4BF2B11F460FF48
:102A500004C06F5F7F4F8F4F9F4F089557FD905871
:102A6000440F551F59F05F3F71F04795880F97FB52
:102A7000991F61F09F3F79F087950895121613060C
:102A80001406551FF2CF4695F1DF08C0161617063B
:102A90001806991FF1CF8695710561050894089570
:102AA000E894BB2766277727CB0197F908950BD0C9
:102AB000C4CFB5DF28F0BADF18F0952309F0A6CF10
:102AC000ABCF1124EECFCADFA0F3959FD1F3950FC2
:102AD00050E0551F629FF001729FBB27F00DB11DA2
:102AE000639FAA27F00DB11DAA1F649F6627B00D32
:102AF000A11D661F829F2227B00DA11D621F739F1B
:102B0000B00DA11D621F839FA00D611D221F749F28
:102B10003327A00D611D231F849F600D211D822F6F
:102B2000762F6A2F11249F5750408AF0E1F08823B6
:102B30004AF0EE0FFF1FBB1F661F771F881F9150C3
:102B40005040A9F79E3F510570F060CFAACF5F3F7C
:102B5000ECF3983EDCF3869577956795B795F795F6
:102B6000E7959F5FC1F7FE2B880F911D969587957E
:102B700097F90895991B79E004C0991F961708F0FA
:102B8000961B881F7A95C9F780950895AA1BBB1BD1
:102B900051E107C0AA1FBB1FA617B70710F0A61B5D
:102BA000B70B881F991F5A95A9F780959095BC017E
:102BB000CD010895FB019F01E8944230C4F04532F5
:102BC000B4F44A3029F497FB1EF4909581959F4FF9
:102BD000642F77270E94C615805D8A330CF0895DCB
:102BE0008193CB010097A1F716F45DE25193108217
:102BF000C9010C94FB15DC01FC01672F719177234F
:102C0000E1F7329704C07C916D9370836291AE17A7
:0A2C1000BF07C8F30895F894FFCF42
:102C1A007061747269636B203139373300000000C8
:102C2A0000000000620635060806980B9E0B4C0051
:0A2C3A00444C005200445200010017
:00000001FF
